{
  "abi": [
    {
      "inputs": [],
      "name": "increment",
      "outputs": [],
      "stateMutability": "nonpayable",
      "type": "function"
    },
    {
      "inputs": [],
      "name": "myInc",
      "outputs": [
        {
          "internalType": "uint256",
          "name": "",
          "type": "uint256"
        }
      ],
      "stateMutability": "nonpayable",
      "type": "function"
    },
    {
      "inputs": [],
      "name": "number",
      "outputs": [
        {
          "internalType": "uint256",
          "name": "",
          "type": "uint256"
        }
      ],
      "stateMutability": "view",
      "type": "function"
    },
    {
      "inputs": [
        {
          "internalType": "uint256",
          "name": "newNumber",
          "type": "uint256"
        }
      ],
      "name": "setNumber",
      "outputs": [],
      "stateMutability": "nonpayable",
      "type": "function"
    }
  ],
  "bytecode": {
    "object": "0x608060405234801561001057600080fd5b50610125806100206000396000f3fe6080604052348015600f57600080fd5b506004361060465760003560e01c80633fb5c1cb14604b5780638381f58a14605d578063d09de08a146077578063df8009da14607d575b600080fd5b605b605636600460b1565b600055565b005b606560005481565b60405190815260200160405180910390f35b605b6083565b60656097565b60008054908060908360c9565b9190505550565b60008054818060a48360c9565b9190505550600054905090565b60006020828403121560c257600080fd5b5035919050565b60006001820160e857634e487b7160e01b600052601160045260246000fd5b506001019056fea2646970667358221220435fa5b5f2b80c84cc58a5a4bccc449661d3a48f93a2d4b0dda0de76f7f6362564736f6c63430008130033",
    "linkReferences": {}
  },
  "methodIdentifiers": {
    "increment()": "d09de08a",
    "myInc()": "df8009da",
    "number()": "8381f58a",
    "setNumber(uint256)": "3fb5c1cb"
  },
  "id": 17
}